{"abi":[{"inputs":[],"stateMutability":"nonpayable","type":"constructor","name":"constructor"},{"inputs":[],"name":"create_game","outputs":[],"stateMutability":"payable","type":"function"},{"inputs":[],"name":"flip_coins","outputs":[],"stateMutability":"nonpayable","type":"function"},{"inputs":[],"name":"get_game_count","outputs":[{"internalType":"uint256","name":"","type":"uint256"}],"stateMutability":"view","type":"function"},{"inputs":[{"internalType":"uint256","name":"_index","type":"uint256"}],"name":"get_game_info","outputs":[{"internalType":"uint256","name":"_i","type":"uint256"},{"internalType":"address","name":"_player1","type":"address"},{"internalType":"address","name":"_player2","type":"address"},{"internalType":"uint256","name":"_amount","type":"uint256"},{"internalType":"address","name":"_winner","type":"address"}],"stateMutability":"view","type":"function"},{"inputs":[{"internalType":"uint256","name":"_seed","type":"uint256"}],"name":"get_random_number","outputs":[{"internalType":"bytes32","name":"requestId","type":"bytes32"}],"stateMutability":"nonpayable","type":"function"},{"inputs":[{"internalType":"uint256","name":"_index","type":"uint256"}],"name":"join_game","outputs":[],"stateMutability":"payable","type":"function"},{"inputs":[],"name":"randomResult","outputs":[{"internalType":"uint256","name":"","type":"uint256"}],"stateMutability":"view","type":"function"},{"inputs":[{"internalType":"bytes32","name":"requestId","type":"bytes32"},{"internalType":"uint256","name":"randomness","type":"uint256"}],"name":"rawFulfillRandomness","outputs":[],"stateMutability":"nonpayable","type":"function"},{"inputs":[],"name":"withdrawLink","outputs":[],"stateMutability":"nonpayable","type":"function"}],"bytecode":"60c060405234801561001057600080fd5b507f8c7382f9d8f56b33781fe506e897a4f1e2d1725500000000000000000000000060a0527f326c977e6efc84e512bb9c30f76e30c160ed06fb0000000000000000000000006080527f6e75b569a01ef56d18cab6a8e71e6600d6ce853834d4a5748b720d06f878b3a4600155655af3107a40006002556000600455600780546001600160a01b0319163317905560805160601c60a05160601c610b186100d1600039806105ab52806106be5250806101db528061068f5250610b186000f3fe6080604052600436106100855760003560e01c806342909a9e1161005957806342909a9e146101535780634a7b26ec1461015d5780638dc654a21461017a57806394985ddd1461018f578063ced1d1a6146101bf57610085565b80626b52121461008a57806331131483146100c657806342619f6614610129578063428889b21461013e575b600080fd5b34801561009657600080fd5b506100b4600480360360208110156100ad57600080fd5b50356101d4565b60408051918252519081900360200190f35b3480156100d257600080fd5b506100f0600480360360208110156100e957600080fd5b50356102c4565b604080519586526001600160a01b0394851660208701529284168584015260608501919091529091166080830152519081900360a00190f35b34801561013557600080fd5b506100b461033f565b34801561014a57600080fd5b506100b4610345565b61015b61034b565b005b61015b6004803603602081101561017357600080fd5b50356103f0565b34801561018657600080fd5b5061015b610587565b34801561019b57600080fd5b5061015b600480360360408110156101b257600080fd5b50803590602001356105a0565b3480156101cb57600080fd5b5061015b61062b565b60006002547f00000000000000000000000000000000000000000000000000000000000000006001600160a01b03166370a08231306040518263ffffffff1660e01b815260040180826001600160a01b0316815260200191505060206040518083038186803b15801561024657600080fd5b505afa15801561025a573d6000803e3d6000fd5b505050506040513d602081101561027057600080fd5b505110156102af5760405162461bcd60e51b815260040180806020018281038252602b815260200180610ab8602b913960400191505060405180910390fd5b6102be6001546002548461068b565b92915050565b60008060008060006102d4610a89565b5050506000938452505060056020908152604092839020835160a081018552815480825260018301546001600160a01b039081169483018590526002840154811696830187905260038401546060840181905260049094015416608090920182905295929493509091565b60035481565b60045490565b610353610a89565b506040805160a08101825260048054808352336020808501918252308587018181523460608801908152608088019283526000958652600590935296909320945185559051600180860180546001600160a01b03199081166001600160a01b039485161790915596516002870180548916918416919091179055915160038601559151938301805490951693909116929092179092558154019055565b6103f8610a89565b50600081815260056020908152604091829020825160a0810184528154815260018201546001600160a01b039081169382019390935260028201548316938101939093526003810154606084018190526004909101549091166080830152341461049d576040805162461bcd60e51b8152602060048201526011602482015270496e636f727265637420616d6f756e742160781b604482015290519081900360640190fd5b60408101516001600160a01b031630146104f4576040805162461bcd60e51b815260206004820152601360248201527211d85b5948185b1c9958591e481a9bda5b9959606a1b604482015290519081900360640190fd5b60808101516001600160a01b0316301461054b576040805162461bcd60e51b815260206004820152601360248201527211d85b5948185b1c9958591e481c1b185e5959606a1b604482015290519081900360640190fd5b33604090910152600680546001810182556000919091527ff652222313e28459528d920b65115c16c04f3efc82aaedc97be59f3f377c0d3f0155565b6007546001600160a01b0316331461059e57600080fd5b565b336001600160a01b037f0000000000000000000000000000000000000000000000000000000000000000161461061d576040805162461bcd60e51b815260206004820152601f60248201527f4f6e6c7920565246436f6f7264696e61746f722063616e2066756c66696c6c00604482015290519081900360640190fd5b610627828261083e565b5050565b60065461067f576040805162461bcd60e51b815260206004820152601b60248201527f546865726520617265206e6f2070656e64696e672067616d6573210000000000604482015290519081900360640190fd5b610688426101d4565b50565b60007f00000000000000000000000000000000000000000000000000000000000000006001600160a01b0316634000aea07f000000000000000000000000000000000000000000000000000000000000000085878660405160200180838152602001828152602001925050506040516020818303038152906040526040518463ffffffff1660e01b815260040180846001600160a01b0316815260200183815260200180602001828103825283818151815260200191508051906020019080838360005b8381101561076757818101518382015260200161074f565b50505050905090810190601f1680156107945780820380516001836020036101000a031916815260200191505b50945050505050602060405180830381600087803b1580156107b557600080fd5b505af11580156107c9573d6000803e3d6000fd5b505050506040513d60208110156107df57600080fd5b50506000848152602081905260408120546107ff908690859030906109b5565b60008681526020819052604090205490915061081c9060016109fc565b6000868152602081905260409020556108358582610a5d565b95945050505050565b600381905560005b6006548110156109b057610858610a89565b600560006006848154811061086957fe5b600091825260208083209091015483528281019390935260409182019020815160a0810183528154815260018201546001600160a01b0390811694820194909452600280830154851693820193909352600380830154606083015260049092015490931660808401525491925090066108f45760208101516001600160a01b03166080820152610908565b60408101516001600160a01b031660808201525b8051600090815260056020908152604080832084518155918401516001830180546001600160a01b03199081166001600160a01b0393841617909155828601516002850180548316918416919091179055606086015160038501819055608087015160049095018054909216949092169384179055905191926108fc8215029290818181858888f193505050501580156109a6573d6000803e3d6000fd5b5050600101610846565b505050565b60408051602080820196909652808201949094526001600160a01b039290921660608401526080808401919091528151808403909101815260a09092019052805191012090565b600082820183811015610a56576040805162461bcd60e51b815260206004820152601b60248201527f536166654d6174683a206164646974696f6e206f766572666c6f770000000000604482015290519081900360640190fd5b9392505050565b604080516020808201949094528082019290925280518083038201815260609092019052805191012090565b6040805160a0810182526000808252602082018190529181018290526060810182905260808101919091529056fe4e6f7420656e6f756768204c494e4b202d2066696c6c20636f6e7472616374207769746820666175636574a26469706673582212207a50c4f0500578a8348589fc91d74f404c34d19b341e9ac22fa668f8fd14749f64736f6c634300060c0033","bytecodeSha1":"f9e2ee220991231810f936a60cd843a26df293cd","compiler":{"evm_version":"istanbul","optimizer":{"enabled":true,"runs":200},"version":"0.6.12+commit.27d51765"},"contractName":"Coinflip","language":"Solidity","natspec":{"kind":"dev","methods":{},"version":1},"opcodes":"PUSH1 0x80 PUSH1 0x40 MSTORE PUSH1 0x4 CALLDATASIZE LT PUSH2 0x85 JUMPI PUSH1 0x0 CALLDATALOAD PUSH1 0xE0 SHR DUP1 PUSH4 0x42909A9E GT PUSH2 0x59 JUMPI DUP1 PUSH4 0x42909A9E EQ PUSH2 0x153 JUMPI DUP1 PUSH4 0x4A7B26EC EQ PUSH2 0x15D JUMPI DUP1 PUSH4 0x8DC654A2 EQ PUSH2 0x17A JUMPI DUP1 PUSH4 0x94985DDD EQ PUSH2 0x18F JUMPI DUP1 PUSH4 0xCED1D1A6 EQ PUSH2 0x1BF JUMPI PUSH2 0x85 JUMP JUMPDEST DUP1 PUSH3 0x6B5212 EQ PUSH2 0x8A JUMPI DUP1 PUSH4 0x31131483 EQ PUSH2 0xC6 JUMPI DUP1 PUSH4 0x42619F66 EQ PUSH2 0x129 JUMPI DUP1 PUSH4 0x428889B2 EQ PUSH2 0x13E JUMPI JUMPDEST PUSH1 0x0 DUP1 REVERT JUMPDEST CALLVALUE DUP1 ISZERO PUSH2 0x96 JUMPI PUSH1 0x0 DUP1 REVERT JUMPDEST POP PUSH2 0xB4 PUSH1 0x4 DUP1 CALLDATASIZE SUB PUSH1 0x20 DUP2 LT ISZERO PUSH2 0xAD JUMPI PUSH1 0x0 DUP1 REVERT JUMPDEST POP CALLDATALOAD PUSH2 0x1D4 JUMP JUMPDEST PUSH1 0x40 DUP1 MLOAD SWAP2 DUP3 MSTORE MLOAD SWAP1 DUP2 SWAP1 SUB PUSH1 0x20 ADD SWAP1 RETURN JUMPDEST CALLVALUE DUP1 ISZERO PUSH2 0xD2 JUMPI PUSH1 0x0 DUP1 REVERT JUMPDEST POP PUSH2 0xF0 PUSH1 0x4 DUP1 CALLDATASIZE SUB PUSH1 0x20 DUP2 LT ISZERO PUSH2 0xE9 JUMPI PUSH1 0x0 DUP1 REVERT JUMPDEST POP CALLDATALOAD PUSH2 0x2C4 JUMP JUMPDEST PUSH1 0x40 DUP1 MLOAD SWAP6 DUP7 MSTORE PUSH1 0x1 PUSH1 0x1 PUSH1 0xA0 SHL SUB SWAP5 DUP6 AND PUSH1 0x20 DUP8 ADD MSTORE SWAP3 DUP5 AND DUP6 DUP5 ADD MSTORE PUSH1 0x60 DUP6 ADD SWAP2 SWAP1 SWAP2 MSTORE SWAP1 SWAP2 AND PUSH1 0x80 DUP4 ADD MSTORE MLOAD SWAP1 DUP2 SWAP1 SUB PUSH1 0xA0 ADD SWAP1 RETURN JUMPDEST CALLVALUE DUP1 ISZERO PUSH2 0x135 JUMPI PUSH1 0x0 DUP1 REVERT JUMPDEST POP PUSH2 0xB4 PUSH2 0x33F JUMP JUMPDEST CALLVALUE DUP1 ISZERO PUSH2 0x14A JUMPI PUSH1 0x0 DUP1 REVERT JUMPDEST POP PUSH2 0xB4 PUSH2 0x345 JUMP JUMPDEST PUSH2 0x15B PUSH2 0x34B JUMP JUMPDEST STOP JUMPDEST PUSH2 0x15B PUSH1 0x4 DUP1 CALLDATASIZE SUB PUSH1 0x20 DUP2 LT ISZERO PUSH2 0x173 JUMPI PUSH1 0x0 DUP1 REVERT JUMPDEST POP CALLDATALOAD PUSH2 0x3F0 JUMP JUMPDEST CALLVALUE DUP1 ISZERO PUSH2 0x186 JUMPI PUSH1 0x0 DUP1 REVERT JUMPDEST POP PUSH2 0x15B PUSH2 0x587 JUMP JUMPDEST CALLVALUE DUP1 ISZERO PUSH2 0x19B JUMPI PUSH1 0x0 DUP1 REVERT JUMPDEST POP PUSH2 0x15B PUSH1 0x4 DUP1 CALLDATASIZE SUB PUSH1 0x40 DUP2 LT ISZERO PUSH2 0x1B2 JUMPI PUSH1 0x0 DUP1 REVERT JUMPDEST POP DUP1 CALLDATALOAD SWAP1 PUSH1 0x20 ADD CALLDATALOAD PUSH2 0x5A0 JUMP JUMPDEST CALLVALUE DUP1 ISZERO PUSH2 0x1CB JUMPI PUSH1 0x0 DUP1 REVERT JUMPDEST POP PUSH2 0x15B PUSH2 0x62B JUMP JUMPDEST PUSH1 0x0 PUSH1 0x2 SLOAD PUSH32 0x0 PUSH1 0x1 PUSH1 0x1 PUSH1 0xA0 SHL SUB AND PUSH4 0x70A08231 ADDRESS PUSH1 0x40 MLOAD DUP3 PUSH4 0xFFFFFFFF AND PUSH1 0xE0 SHL DUP2 MSTORE PUSH1 0x4 ADD DUP1 DUP3 PUSH1 0x1 PUSH1 0x1 PUSH1 0xA0 SHL SUB AND DUP2 MSTORE PUSH1 0x20 ADD SWAP2 POP POP PUSH1 0x20 PUSH1 0x40 MLOAD DUP1 DUP4 SUB DUP2 DUP7 DUP1 EXTCODESIZE ISZERO DUP1 ISZERO PUSH2 0x246 JUMPI PUSH1 0x0 DUP1 REVERT JUMPDEST POP GAS STATICCALL ISZERO DUP1 ISZERO PUSH2 0x25A JUMPI RETURNDATASIZE PUSH1 0x0 DUP1 RETURNDATACOPY RETURNDATASIZE PUSH1 0x0 REVERT JUMPDEST POP POP POP POP PUSH1 0x40 MLOAD RETURNDATASIZE PUSH1 0x20 DUP2 LT ISZERO PUSH2 0x270 JUMPI PUSH1 0x0 DUP1 REVERT JUMPDEST POP MLOAD LT ISZERO PUSH2 0x2AF JUMPI PUSH1 0x40 MLOAD PUSH3 0x461BCD PUSH1 0xE5 SHL DUP2 MSTORE PUSH1 0x4 ADD DUP1 DUP1 PUSH1 0x20 ADD DUP3 DUP2 SUB DUP3 MSTORE PUSH1 0x2B DUP2 MSTORE PUSH1 0x20 ADD DUP1 PUSH2 0xAB8 PUSH1 0x2B SWAP2 CODECOPY PUSH1 0x40 ADD SWAP2 POP POP PUSH1 0x40 MLOAD DUP1 SWAP2 SUB SWAP1 REVERT JUMPDEST PUSH2 0x2BE PUSH1 0x1 SLOAD PUSH1 0x2 SLOAD DUP5 PUSH2 0x68B JUMP JUMPDEST SWAP3 SWAP2 POP POP JUMP JUMPDEST PUSH1 0x0 DUP1 PUSH1 0x0 DUP1 PUSH1 0x0 PUSH2 0x2D4 PUSH2 0xA89 JUMP JUMPDEST POP POP POP PUSH1 0x0 SWAP4 DUP5 MSTORE POP POP PUSH1 0x5 PUSH1 0x20 SWAP1 DUP2 MSTORE PUSH1 0x40 SWAP3 DUP4 SWAP1 KECCAK256 DUP4 MLOAD PUSH1 0xA0 DUP2 ADD DUP6 MSTORE DUP2 SLOAD DUP1 DUP3 MSTORE PUSH1 0x1 DUP4 ADD SLOAD PUSH1 0x1 PUSH1 0x1 PUSH1 0xA0 SHL SUB SWAP1 DUP2 AND SWAP5 DUP4 ADD DUP6 SWAP1 MSTORE PUSH1 0x2 DUP5 ADD SLOAD DUP2 AND SWAP7 DUP4 ADD DUP8 SWAP1 MSTORE PUSH1 0x3 DUP5 ADD SLOAD PUSH1 0x60 DUP5 ADD DUP2 SWAP1 MSTORE PUSH1 0x4 SWAP1 SWAP5 ADD SLOAD AND PUSH1 0x80 SWAP1 SWAP3 ADD DUP3 SWAP1 MSTORE SWAP6 SWAP3 SWAP5 SWAP4 POP SWAP1 SWAP2 JUMP JUMPDEST PUSH1 0x3 SLOAD DUP2 JUMP JUMPDEST PUSH1 0x4 SLOAD SWAP1 JUMP JUMPDEST PUSH2 0x353 PUSH2 0xA89 JUMP JUMPDEST POP PUSH1 0x40 DUP1 MLOAD PUSH1 0xA0 DUP2 ADD DUP3 MSTORE PUSH1 0x4 DUP1 SLOAD DUP1 DUP4 MSTORE CALLER PUSH1 0x20 DUP1 DUP6 ADD SWAP2 DUP3 MSTORE ADDRESS DUP6 DUP8 ADD DUP2 DUP2 MSTORE CALLVALUE PUSH1 0x60 DUP9 ADD SWAP1 DUP2 MSTORE PUSH1 0x80 DUP9 ADD SWAP3 DUP4 MSTORE PUSH1 0x0 SWAP6 DUP7 MSTORE PUSH1 0x5 SWAP1 SWAP4 MSTORE SWAP7 SWAP1 SWAP4 KECCAK256 SWAP5 MLOAD DUP6 SSTORE SWAP1 MLOAD PUSH1 0x1 DUP1 DUP7 ADD DUP1 SLOAD PUSH1 0x1 PUSH1 0x1 PUSH1 0xA0 SHL SUB NOT SWAP1 DUP2 AND PUSH1 0x1 PUSH1 0x1 PUSH1 0xA0 SHL SUB SWAP5 DUP6 AND OR SWAP1 SWAP2 SSTORE SWAP7 MLOAD PUSH1 0x2 DUP8 ADD DUP1 SLOAD DUP10 AND SWAP2 DUP5 AND SWAP2 SWAP1 SWAP2 OR SWAP1 SSTORE SWAP2 MLOAD PUSH1 0x3 DUP7 ADD SSTORE SWAP2 MLOAD SWAP4 DUP4 ADD DUP1 SLOAD SWAP1 SWAP6 AND SWAP4 SWAP1 SWAP2 AND SWAP3 SWAP1 SWAP3 OR SWAP1 SWAP3 SSTORE DUP2 SLOAD ADD SWAP1 SSTORE JUMP JUMPDEST PUSH2 0x3F8 PUSH2 0xA89 JUMP JUMPDEST POP PUSH1 0x0 DUP2 DUP2 MSTORE PUSH1 0x5 PUSH1 0x20 SWAP1 DUP2 MSTORE PUSH1 0x40 SWAP2 DUP3 SWAP1 KECCAK256 DUP3 MLOAD PUSH1 0xA0 DUP2 ADD DUP5 MSTORE DUP2 SLOAD DUP2 MSTORE PUSH1 0x1 DUP3 ADD SLOAD PUSH1 0x1 PUSH1 0x1 PUSH1 0xA0 SHL SUB SWAP1 DUP2 AND SWAP4 DUP3 ADD SWAP4 SWAP1 SWAP4 MSTORE PUSH1 0x2 DUP3 ADD SLOAD DUP4 AND SWAP4 DUP2 ADD SWAP4 SWAP1 SWAP4 MSTORE PUSH1 0x3 DUP2 ADD SLOAD PUSH1 0x60 DUP5 ADD DUP2 SWAP1 MSTORE PUSH1 0x4 SWAP1 SWAP2 ADD SLOAD SWAP1 SWAP2 AND PUSH1 0x80 DUP4 ADD MSTORE CALLVALUE EQ PUSH2 0x49D JUMPI PUSH1 0x40 DUP1 MLOAD PUSH3 0x461BCD PUSH1 0xE5 SHL DUP2 MSTORE PUSH1 0x20 PUSH1 0x4 DUP3 ADD MSTORE PUSH1 0x11 PUSH1 0x24 DUP3 ADD MSTORE PUSH17 0x496E636F727265637420616D6F756E7421 PUSH1 0x78 SHL PUSH1 0x44 DUP3 ADD MSTORE SWAP1 MLOAD SWAP1 DUP2 SWAP1 SUB PUSH1 0x64 ADD SWAP1 REVERT JUMPDEST PUSH1 0x40 DUP2 ADD MLOAD PUSH1 0x1 PUSH1 0x1 PUSH1 0xA0 SHL SUB AND ADDRESS EQ PUSH2 0x4F4 JUMPI PUSH1 0x40 DUP1 MLOAD PUSH3 0x461BCD PUSH1 0xE5 SHL DUP2 MSTORE PUSH1 0x20 PUSH1 0x4 DUP3 ADD MSTORE PUSH1 0x13 PUSH1 0x24 DUP3 ADD MSTORE PUSH19 0x11D85B5948185B1C9958591E481A9BDA5B9959 PUSH1 0x6A SHL PUSH1 0x44 DUP3 ADD MSTORE SWAP1 MLOAD SWAP1 DUP2 SWAP1 SUB PUSH1 0x64 ADD SWAP1 REVERT JUMPDEST PUSH1 0x80 DUP2 ADD MLOAD PUSH1 0x1 PUSH1 0x1 PUSH1 0xA0 SHL SUB AND ADDRESS EQ PUSH2 0x54B JUMPI PUSH1 0x40 DUP1 MLOAD PUSH3 0x461BCD PUSH1 0xE5 SHL DUP2 MSTORE PUSH1 0x20 PUSH1 0x4 DUP3 ADD MSTORE PUSH1 0x13 PUSH1 0x24 DUP3 ADD MSTORE PUSH19 0x11D85B5948185B1C9958591E481C1B185E5959 PUSH1 0x6A SHL PUSH1 0x44 DUP3 ADD MSTORE SWAP1 MLOAD SWAP1 DUP2 SWAP1 SUB PUSH1 0x64 ADD SWAP1 REVERT JUMPDEST CALLER PUSH1 0x40 SWAP1 SWAP2 ADD MSTORE PUSH1 0x6 DUP1 SLOAD PUSH1 0x1 DUP2 ADD DUP3 SSTORE PUSH1 0x0 SWAP2 SWAP1 SWAP2 MSTORE PUSH32 0xF652222313E28459528D920B65115C16C04F3EFC82AAEDC97BE59F3F377C0D3F ADD SSTORE JUMP JUMPDEST PUSH1 0x7 SLOAD PUSH1 0x1 PUSH1 0x1 PUSH1 0xA0 SHL SUB AND CALLER EQ PUSH2 0x59E JUMPI PUSH1 0x0 DUP1 REVERT JUMPDEST JUMP JUMPDEST CALLER PUSH1 0x1 PUSH1 0x1 PUSH1 0xA0 SHL SUB PUSH32 0x0 AND EQ PUSH2 0x61D JUMPI PUSH1 0x40 DUP1 MLOAD PUSH3 0x461BCD PUSH1 0xE5 SHL DUP2 MSTORE PUSH1 0x20 PUSH1 0x4 DUP3 ADD MSTORE PUSH1 0x1F PUSH1 0x24 DUP3 ADD MSTORE PUSH32 0x4F6E6C7920565246436F6F7264696E61746F722063616E2066756C66696C6C00 PUSH1 0x44 DUP3 ADD MSTORE SWAP1 MLOAD SWAP1 DUP2 SWAP1 SUB PUSH1 0x64 ADD SWAP1 REVERT JUMPDEST PUSH2 0x627 DUP3 DUP3 PUSH2 0x83E JUMP JUMPDEST POP POP JUMP JUMPDEST PUSH1 0x6 SLOAD PUSH2 0x67F JUMPI PUSH1 0x40 DUP1 MLOAD PUSH3 0x461BCD PUSH1 0xE5 SHL DUP2 MSTORE PUSH1 0x20 PUSH1 0x4 DUP3 ADD MSTORE PUSH1 0x1B PUSH1 0x24 DUP3 ADD MSTORE PUSH32 0x546865726520617265206E6F2070656E64696E672067616D6573210000000000 PUSH1 0x44 DUP3 ADD MSTORE SWAP1 MLOAD SWAP1 DUP2 SWAP1 SUB PUSH1 0x64 ADD SWAP1 REVERT JUMPDEST PUSH2 0x688 TIMESTAMP PUSH2 0x1D4 JUMP JUMPDEST POP JUMP JUMPDEST PUSH1 0x0 PUSH32 0x0 PUSH1 0x1 PUSH1 0x1 PUSH1 0xA0 SHL SUB AND PUSH4 0x4000AEA0 PUSH32 0x0 DUP6 DUP8 DUP7 PUSH1 0x40 MLOAD PUSH1 0x20 ADD DUP1 DUP4 DUP2 MSTORE PUSH1 0x20 ADD DUP3 DUP2 MSTORE PUSH1 0x20 ADD SWAP3 POP POP POP PUSH1 0x40 MLOAD PUSH1 0x20 DUP2 DUP4 SUB SUB DUP2 MSTORE SWAP1 PUSH1 0x40 MSTORE PUSH1 0x40 MLOAD DUP5 PUSH4 0xFFFFFFFF AND PUSH1 0xE0 SHL DUP2 MSTORE PUSH1 0x4 ADD DUP1 DUP5 PUSH1 0x1 PUSH1 0x1 PUSH1 0xA0 SHL SUB AND DUP2 MSTORE PUSH1 0x20 ADD DUP4 DUP2 MSTORE PUSH1 0x20 ADD DUP1 PUSH1 0x20 ADD DUP3 DUP2 SUB DUP3 MSTORE DUP4 DUP2 DUP2 MLOAD DUP2 MSTORE PUSH1 0x20 ADD SWAP2 POP DUP1 MLOAD SWAP1 PUSH1 0x20 ADD SWAP1 DUP1 DUP4 DUP4 PUSH1 0x0 JUMPDEST DUP4 DUP2 LT ISZERO PUSH2 0x767 JUMPI DUP2 DUP2 ADD MLOAD DUP4 DUP3 ADD MSTORE PUSH1 0x20 ADD PUSH2 0x74F JUMP JUMPDEST POP POP POP POP SWAP1 POP SWAP1 DUP2 ADD SWAP1 PUSH1 0x1F AND DUP1 ISZERO PUSH2 0x794 JUMPI DUP1 DUP3 SUB DUP1 MLOAD PUSH1 0x1 DUP4 PUSH1 0x20 SUB PUSH2 0x100 EXP SUB NOT AND DUP2 MSTORE PUSH1 0x20 ADD SWAP2 POP JUMPDEST POP SWAP5 POP POP POP POP POP PUSH1 0x20 PUSH1 0x40 MLOAD DUP1 DUP4 SUB DUP2 PUSH1 0x0 DUP8 DUP1 EXTCODESIZE ISZERO DUP1 ISZERO PUSH2 0x7B5 JUMPI PUSH1 0x0 DUP1 REVERT JUMPDEST POP GAS CALL ISZERO DUP1 ISZERO PUSH2 0x7C9 JUMPI RETURNDATASIZE PUSH1 0x0 DUP1 RETURNDATACOPY RETURNDATASIZE PUSH1 0x0 REVERT JUMPDEST POP POP POP POP PUSH1 0x40 MLOAD RETURNDATASIZE PUSH1 0x20 DUP2 LT ISZERO PUSH2 0x7DF JUMPI PUSH1 0x0 DUP1 REVERT JUMPDEST POP POP PUSH1 0x0 DUP5 DUP2 MSTORE PUSH1 0x20 DUP2 SWAP1 MSTORE PUSH1 0x40 DUP2 KECCAK256 SLOAD PUSH2 0x7FF SWAP1 DUP7 SWAP1 DUP6 SWAP1 ADDRESS SWAP1 PUSH2 0x9B5 JUMP JUMPDEST PUSH1 0x0 DUP7 DUP2 MSTORE PUSH1 0x20 DUP2 SWAP1 MSTORE PUSH1 0x40 SWAP1 KECCAK256 SLOAD SWAP1 SWAP2 POP PUSH2 0x81C SWAP1 PUSH1 0x1 PUSH2 0x9FC JUMP JUMPDEST PUSH1 0x0 DUP7 DUP2 MSTORE PUSH1 0x20 DUP2 SWAP1 MSTORE PUSH1 0x40 SWAP1 KECCAK256 SSTORE PUSH2 0x835 DUP6 DUP3 PUSH2 0xA5D JUMP JUMPDEST SWAP6 SWAP5 POP POP POP POP POP JUMP JUMPDEST PUSH1 0x3 DUP2 SWAP1 SSTORE PUSH1 0x0 JUMPDEST PUSH1 0x6 SLOAD DUP2 LT ISZERO PUSH2 0x9B0 JUMPI PUSH2 0x858 PUSH2 0xA89 JUMP JUMPDEST PUSH1 0x5 PUSH1 0x0 PUSH1 0x6 DUP5 DUP2 SLOAD DUP2 LT PUSH2 0x869 JUMPI INVALID JUMPDEST PUSH1 0x0 SWAP2 DUP3 MSTORE PUSH1 0x20 DUP1 DUP4 KECCAK256 SWAP1 SWAP2 ADD SLOAD DUP4 MSTORE DUP3 DUP2 ADD SWAP4 SWAP1 SWAP4 MSTORE PUSH1 0x40 SWAP2 DUP3 ADD SWAP1 KECCAK256 DUP2 MLOAD PUSH1 0xA0 DUP2 ADD DUP4 MSTORE DUP2 SLOAD DUP2 MSTORE PUSH1 0x1 DUP3 ADD SLOAD PUSH1 0x1 PUSH1 0x1 PUSH1 0xA0 SHL SUB SWAP1 DUP2 AND SWAP5 DUP3 ADD SWAP5 SWAP1 SWAP5 MSTORE PUSH1 0x2 DUP1 DUP4 ADD SLOAD DUP6 AND SWAP4 DUP3 ADD SWAP4 SWAP1 SWAP4 MSTORE PUSH1 0x3 DUP1 DUP4 ADD SLOAD PUSH1 0x60 DUP4 ADD MSTORE PUSH1 0x4 SWAP1 SWAP3 ADD SLOAD SWAP1 SWAP4 AND PUSH1 0x80 DUP5 ADD MSTORE SLOAD SWAP2 SWAP3 POP SWAP1 MOD PUSH2 0x8F4 JUMPI PUSH1 0x20 DUP2 ADD MLOAD PUSH1 0x1 PUSH1 0x1 PUSH1 0xA0 SHL SUB AND PUSH1 0x80 DUP3 ADD MSTORE PUSH2 0x908 JUMP JUMPDEST PUSH1 0x40 DUP2 ADD MLOAD PUSH1 0x1 PUSH1 0x1 PUSH1 0xA0 SHL SUB AND PUSH1 0x80 DUP3 ADD MSTORE JUMPDEST DUP1 MLOAD PUSH1 0x0 SWAP1 DUP2 MSTORE PUSH1 0x5 PUSH1 0x20 SWAP1 DUP2 MSTORE PUSH1 0x40 DUP1 DUP4 KECCAK256 DUP5 MLOAD DUP2 SSTORE SWAP2 DUP5 ADD MLOAD PUSH1 0x1 DUP4 ADD DUP1 SLOAD PUSH1 0x1 PUSH1 0x1 PUSH1 0xA0 SHL SUB NOT SWAP1 DUP2 AND PUSH1 0x1 PUSH1 0x1 PUSH1 0xA0 SHL SUB SWAP4 DUP5 AND OR SWAP1 SWAP2 SSTORE DUP3 DUP7 ADD MLOAD PUSH1 0x2 DUP6 ADD DUP1 SLOAD DUP4 AND SWAP2 DUP5 AND SWAP2 SWAP1 SWAP2 OR SWAP1 SSTORE PUSH1 0x60 DUP7 ADD MLOAD PUSH1 0x3 DUP6 ADD DUP2 SWAP1 SSTORE PUSH1 0x80 DUP8 ADD MLOAD PUSH1 0x4 SWAP1 SWAP6 ADD DUP1 SLOAD SWAP1 SWAP3 AND SWAP5 SWAP1 SWAP3 AND SWAP4 DUP5 OR SWAP1 SSTORE SWAP1 MLOAD SWAP2 SWAP3 PUSH2 0x8FC DUP3 ISZERO MUL SWAP3 SWAP1 DUP2 DUP2 DUP2 DUP6 DUP9 DUP9 CALL SWAP4 POP POP POP POP ISZERO DUP1 ISZERO PUSH2 0x9A6 JUMPI RETURNDATASIZE PUSH1 0x0 DUP1 RETURNDATACOPY RETURNDATASIZE PUSH1 0x0 REVERT JUMPDEST POP POP PUSH1 0x1 ADD PUSH2 0x846 JUMP JUMPDEST POP POP POP JUMP JUMPDEST PUSH1 0x40 DUP1 MLOAD PUSH1 0x20 DUP1 DUP3 ADD SWAP7 SWAP1 SWAP7 MSTORE DUP1 DUP3 ADD SWAP5 SWAP1 SWAP5 MSTORE PUSH1 0x1 PUSH1 0x1 PUSH1 0xA0 SHL SUB SWAP3 SWAP1 SWAP3 AND PUSH1 0x60 DUP5 ADD MSTORE PUSH1 0x80 DUP1 DUP5 ADD SWAP2 SWAP1 SWAP2 MSTORE DUP2 MLOAD DUP1 DUP5 SUB SWAP1 SWAP2 ADD DUP2 MSTORE PUSH1 0xA0 SWAP1 SWAP3 ADD SWAP1 MSTORE DUP1 MLOAD SWAP2 ADD KECCAK256 SWAP1 JUMP JUMPDEST PUSH1 0x0 DUP3 DUP3 ADD DUP4 DUP2 LT ISZERO PUSH2 0xA56 JUMPI PUSH1 0x40 DUP1 MLOAD PUSH3 0x461BCD PUSH1 0xE5 SHL DUP2 MSTORE PUSH1 0x20 PUSH1 0x4 DUP3 ADD MSTORE PUSH1 0x1B PUSH1 0x24 DUP3 ADD MSTORE PUSH32 0x536166654D6174683A206164646974696F6E206F766572666C6F770000000000 PUSH1 0x44 DUP3 ADD MSTORE SWAP1 MLOAD SWAP1 DUP2 SWAP1 SUB PUSH1 0x64 ADD SWAP1 REVERT JUMPDEST SWAP4 SWAP3 POP POP POP JUMP JUMPDEST PUSH1 0x40 DUP1 MLOAD PUSH1 0x20 DUP1 DUP3 ADD SWAP5 SWAP1 SWAP5 MSTORE DUP1 DUP3 ADD SWAP3 SWAP1 SWAP3 MSTORE DUP1 MLOAD DUP1 DUP4 SUB DUP3 ADD DUP2 MSTORE PUSH1 0x60 SWAP1 SWAP3 ADD SWAP1 MSTORE DUP1 MLOAD SWAP2 ADD KECCAK256 SWAP1 JUMP JUMPDEST PUSH1 0x40 DUP1 MLOAD PUSH1 0xA0 DUP2 ADD DUP3 MSTORE PUSH1 0x0 DUP1 DUP3 MSTORE PUSH1 0x20 DUP3 ADD DUP2 SWAP1 MSTORE SWAP2 DUP2 ADD DUP3 SWAP1 MSTORE PUSH1 0x60 DUP2 ADD DUP3 SWAP1 MSTORE PUSH1 0x80 DUP2 ADD SWAP2 SWAP1 SWAP2 MSTORE SWAP1 JUMP INVALID 0x4E PUSH16 0x7420656E6F756768204C494E4B202D20 PUSH7 0x696C6C20636F6E PUSH21 0x72616374207769746820666175636574A264697066 PUSH20 0x582212207A50C4F0500578A8348589FC91D74F40 0x4C CALLVALUE 0xD1 SWAP12 CALLVALUE 0x1E SWAP11 0xC2 0x2F 0xA6 PUSH9 0xF8FD14749F64736F6C PUSH4 0x4300060C STOP CALLER ","sha1":"4a8d2b129efb27b72b41aadb481ec08c6f15f904","source":"pragma solidity ^0.6.0;\nimport \"@chainlink/contracts/src/v0.6/VRFConsumerBase.sol\";\n\ncontract Coinflip is VRFConsumerBase{\n\n    /*Chainlink setup*/\n    bytes32 internal keyHash;\n    uint256 internal fee;\n    uint256 public randomResult;\n\n    /*Game information and variables*/\n    struct Game {\n        uint256 index;\n        address player1;\n        address player2;\n        uint256 amount;\n        address winner;\n    }\n    uint256 index;\n    mapping(uint256 => Game) gameIndex;\n    uint256[] pendingGames;\n\n    address owner;\n    modifier onlyOwner() {\n        require(msg.sender == owner);\n        _;\n    }\n\n    /*network mumbai*/\n    constructor() VRFConsumerBase(\n            0x8C7382F9D8f56b33781fE506E897a4F1e2d17255, // VRF Coordinator\n            0x326C977E6efc84E512bB9C30f76E30c160eD06FB  // LINK Token\n        ) public {\n\n        keyHash = 0x6e75b569a01ef56d18cab6a8e71e6600d6ce853834d4a5748b720d06f878b3a4;\n        fee = 0.0001 * 10 ** 18; // 0.1 LINK (Varies by network)\n        index = 0;\n        owner = msg.sender;\n    }\n\n    function get_random_number(uint256 _seed) public returns (bytes32 requestId) {\n        require(LINK.balanceOf(address(this)) >= fee, \"Not enough LINK - fill contract with faucet\");\n        return requestRandomness(keyHash, fee, _seed);\n    }\n\n    function fulfillRandomness(bytes32 requestId, uint256 randomness) internal override {\n        randomResult = randomness;\n        for (uint i = 0; i < pendingGames.length; i++) {\n            Game memory game = gameIndex[pendingGames[i]];\n            if (randomResult % 2 == 0) {\n                game.winner = game.player1;\n            }\n            else {\n                game.winner = game.player2;\n            }\n            gameIndex[game.index] = game;\n            payable(game.winner).transfer(game.amount);\n        }\n        uint256[] memory pendingGames;\n    }\n\n\n    function create_game() external payable {\n        Game memory newGame = Game(index, msg.sender, address(this), msg.value, address(this));\n        gameIndex[index] = newGame;\n        index += 1;\n    }\n\n    function join_game(uint256 _index) external payable {\n        Game memory game = gameIndex[_index];\n        require(msg.value == game.amount, \"Incorrect amount!\");\n        require(game.player2 == address(this), \"Game already joined\");\n        require(game.winner == address(this), \"Game already played\");\n        game.player2 = msg.sender;\n        pendingGames.push(_index);\n    }\n\n    function flip_coins() external {\n        require(pendingGames.length > 0, \"There are no pending games!\");\n        get_random_number(block.timestamp);\n    }\n\n    function get_game_count() external view returns(uint256) {\n        return index;\n    }\n\n    function get_game_info(uint256 _index) external view returns(uint256 _i, address _player1, address _player2, uint256 _amount, address _winner) {\n        Game memory game = gameIndex[_index];\n        return (game.index, game.player1, game.player2, game.amount, game.winner);\n    }\n\n    function withdrawLink() external onlyOwner {\n\n    }\n}\n","sourcePath":"contracts/test/Coinflip.sol","type":"contract","deployment":{"address":"0x48AB11Da9E6Ff864963E39A02ca04fA16f4ac0A5","chainid":"80001","blockHeight":13326920}}